{
  "_format": "hh-sol-artifact-1",
  "contractName": "Services",
  "sourceName": "contracts/Services.sol",
  "abi": [
    {
      "inputs": [
        {
          "internalType": "uint120",
          "name": "amount",
          "type": "uint120"
        },
        {
          "internalType": "uint8",
          "name": "age",
          "type": "uint8"
        }
      ],
      "stateMutability": "nonpayable",
      "type": "constructor"
    },
    {
      "anonymous": false,
      "inputs": [
        {
          "indexed": false,
          "internalType": "address",
          "name": "from",
          "type": "address"
        },
        {
          "indexed": false,
          "internalType": "address",
          "name": "to",
          "type": "address"
        },
        {
          "indexed": false,
          "internalType": "uint256",
          "name": "amount",
          "type": "uint256"
        },
        {
          "indexed": false,
          "internalType": "string",
          "name": "message",
          "type": "string"
        },
        {
          "indexed": false,
          "internalType": "uint256",
          "name": "timestamp",
          "type": "uint256"
        },
        {
          "indexed": false,
          "internalType": "string",
          "name": "keyword",
          "type": "string"
        }
      ],
      "name": "Transfer",
      "type": "event"
    },
    {
      "inputs": [],
      "name": "getAllServices",
      "outputs": [
        {
          "components": [
            {
              "internalType": "string",
              "name": "name",
              "type": "string"
            },
            {
              "internalType": "uint16",
              "name": "deposit",
              "type": "uint16"
            },
            {
              "internalType": "string",
              "name": "service",
              "type": "string"
            },
            {
              "internalType": "uint8",
              "name": "age",
              "type": "uint8"
            },
            {
              "internalType": "uint8",
              "name": "serviceFee",
              "type": "uint8"
            },
            {
              "internalType": "bool",
              "name": "status",
              "type": "bool"
            },
            {
              "internalType": "address",
              "name": "serviceFrom",
              "type": "address"
            }
          ],
          "internalType": "struct Services.ProviderStruct[]",
          "name": "",
          "type": "tuple[]"
        }
      ],
      "stateMutability": "view",
      "type": "function"
    },
    {
      "inputs": [],
      "name": "getAllTransactions",
      "outputs": [
        {
          "components": [
            {
              "internalType": "address",
              "name": "sender",
              "type": "address"
            },
            {
              "internalType": "address",
              "name": "receiver",
              "type": "address"
            },
            {
              "internalType": "uint256",
              "name": "amount",
              "type": "uint256"
            },
            {
              "internalType": "string",
              "name": "message",
              "type": "string"
            },
            {
              "internalType": "uint256",
              "name": "timestamp",
              "type": "uint256"
            },
            {
              "internalType": "string",
              "name": "keyword",
              "type": "string"
            }
          ],
          "internalType": "struct Services.TransferStruct[]",
          "name": "",
          "type": "tuple[]"
        }
      ],
      "stateMutability": "view",
      "type": "function"
    },
    {
      "inputs": [],
      "name": "getTransactionCount",
      "outputs": [
        {
          "internalType": "uint256",
          "name": "",
          "type": "uint256"
        }
      ],
      "stateMutability": "view",
      "type": "function"
    },
    {
      "inputs": [
        {
          "internalType": "uint256",
          "name": "amount",
          "type": "uint256"
        },
        {
          "internalType": "address payable",
          "name": "receiver",
          "type": "address"
        },
        {
          "internalType": "string",
          "name": "message",
          "type": "string"
        },
        {
          "internalType": "string",
          "name": "keyword",
          "type": "string"
        }
      ],
      "name": "pay",
      "outputs": [],
      "stateMutability": "nonpayable",
      "type": "function"
    },
    {
      "inputs": [
        {
          "internalType": "string",
          "name": "name",
          "type": "string"
        },
        {
          "internalType": "uint16",
          "name": "amount",
          "type": "uint16"
        },
        {
          "internalType": "string",
          "name": "service",
          "type": "string"
        },
        {
          "internalType": "uint8",
          "name": "age",
          "type": "uint8"
        },
        {
          "internalType": "uint8",
          "name": "fee",
          "type": "uint8"
        }
      ],
      "name": "registerService",
      "outputs": [
        {
          "internalType": "bool",
          "name": "",
          "type": "bool"
        }
      ],
      "stateMutability": "nonpayable",
      "type": "function"
    }
  ],
  "bytecode": "0x60806040523480156200001157600080fd5b5060405162001864380380620018648339818101604052810190620000379190620000ff565b336000806101000a81548173ffffffffffffffffffffffffffffffffffffffff021916908373ffffffffffffffffffffffffffffffffffffffff16021790555081600160006101000a8154816effffffffffffffffffffffffffffff02191690836effffffffffffffffffffffffffffff160217905550806001600f6101000a81548160ff021916908360ff16021790555050506200019c565b600081519050620000e28162000168565b92915050565b600081519050620000f98162000182565b92915050565b600080604083850312156200011357600080fd5b60006200012385828601620000d1565b92505060206200013685828601620000e8565b9150509250929050565b60006effffffffffffffffffffffffffffff82169050919050565b600060ff82169050919050565b620001738162000140565b81146200017f57600080fd5b50565b6200018d816200015b565b81146200019957600080fd5b50565b6116b880620001ac6000396000f3fe608060405234801561001057600080fd5b50600436106100575760003560e01c806321fe0f301461005c57806327506f531461007a5780632e7700f014610098578063451f70cf146100b6578063e21dfbba146100e6575b600080fd5b610064610102565b60405161007191906112a6565b60405180910390f35b610082610350565b60405161008f91906112c8565b60405180910390f35b6100a0610593565b6040516100ad9190611305565b60405180910390f35b6100d060048036038101906100cb9190610dbf565b61059d565b6040516100dd91906112ea565b60405180910390f35b61010060048036038101906100fb9190610e66565b610a9f565b005b60606005805480602002602001604051908101604052809291908181526020016000905b8282101561034757838290600052602060002090600402016040518060e00160405290816000820180546101599061150d565b80601f01602080910402602001604051908101604052809291908181526020018280546101859061150d565b80156101d25780601f106101a7576101008083540402835291602001916101d2565b820191906000526020600020905b8154815290600101906020018083116101b557829003601f168201915b505050505081526020016001820160009054906101000a900461ffff1661ffff1661ffff16815260200160028201805461020b9061150d565b80601f01602080910402602001604051908101604052809291908181526020018280546102379061150d565b80156102845780601f1061025957610100808354040283529160200191610284565b820191906000526020600020905b81548152906001019060200180831161026757829003601f168201915b505050505081526020016003820160009054906101000a900460ff1660ff1660ff1681526020016003820160019054906101000a900460ff1660ff1660ff1681526020016003820160029054906101000a900460ff161515151581526020016003820160039054906101000a900473ffffffffffffffffffffffffffffffffffffffff1673ffffffffffffffffffffffffffffffffffffffff1673ffffffffffffffffffffffffffffffffffffffff168152505081526020019060010190610126565b50505050905090565b60606003805480602002602001604051908101604052809291908181526020016000905b8282101561058a57838290600052602060002090600602016040518060c00160405290816000820160009054906101000a900473ffffffffffffffffffffffffffffffffffffffff1673ffffffffffffffffffffffffffffffffffffffff1673ffffffffffffffffffffffffffffffffffffffff1681526020016001820160009054906101000a900473ffffffffffffffffffffffffffffffffffffffff1673ffffffffffffffffffffffffffffffffffffffff1673ffffffffffffffffffffffffffffffffffffffff1681526020016002820154815260200160038201805461045d9061150d565b80601f01602080910402602001604051908101604052809291908181526020018280546104899061150d565b80156104d65780601f106104ab576101008083540402835291602001916104d6565b820191906000526020600020905b8154815290600101906020018083116104b957829003601f168201915b50505050508152602001600482015481526020016005820180546104f99061150d565b80601f01602080910402602001604051908101604052809291908181526020018280546105259061150d565b80156105725780601f1061054757610100808354040283529160200191610572565b820191906000526020600020905b81548152906001019060200180831161055557829003601f168201915b50505050508152505081526020019060010190610374565b50505050905090565b6000600254905090565b60008461ffff168360ff16600160009054906101000a90046effffffffffffffffffffffffffffff166effffffffffffffffffffffffffffff1682146105e257600080fd5b6001600f9054906101000a900460ff1660ff1681101561060157600080fd5b3360011515600460008373ffffffffffffffffffffffffffffffffffffffff1673ffffffffffffffffffffffffffffffffffffffff16815260200190815260200160002060030160029054906101000a900460ff161515141561066357600080fd5b600033905089600460008373ffffffffffffffffffffffffffffffffffffffff1673ffffffffffffffffffffffffffffffffffffffff16815260200190815260200160002060000190805190602001906106be929190610c60565b5088600460008373ffffffffffffffffffffffffffffffffffffffff1673ffffffffffffffffffffffffffffffffffffffff16815260200190815260200160002060010160006101000a81548161ffff021916908361ffff16021790555087600460008373ffffffffffffffffffffffffffffffffffffffff1673ffffffffffffffffffffffffffffffffffffffff1681526020019081526020016000206002019080519060200190610772929190610c60565b5086600460008373ffffffffffffffffffffffffffffffffffffffff1673ffffffffffffffffffffffffffffffffffffffff16815260200190815260200160002060030160006101000a81548160ff021916908360ff16021790555085600460008373ffffffffffffffffffffffffffffffffffffffff1673ffffffffffffffffffffffffffffffffffffffff16815260200190815260200160002060030160016101000a81548160ff021916908360ff1602179055506001600460008373ffffffffffffffffffffffffffffffffffffffff1673ffffffffffffffffffffffffffffffffffffffff16815260200190815260200160002060030160026101000a81548160ff02191690831515021790555080600460008373ffffffffffffffffffffffffffffffffffffffff1673ffffffffffffffffffffffffffffffffffffffff16815260200190815260200160002060030160036101000a81548173ffffffffffffffffffffffffffffffffffffffff021916908373ffffffffffffffffffffffffffffffffffffffff16021790555060056040518060e001604052808c81526020018b61ffff1681526020018a81526020018960ff1681526020018860ff1681526020016001151581526020018373ffffffffffffffffffffffffffffffffffffffff16815250908060018154018082558091505060019003906000526020600020906004020160009091909190915060008201518160000190805190602001906109a2929190610c60565b5060208201518160010160006101000a81548161ffff021916908361ffff16021790555060408201518160020190805190602001906109e2929190610c60565b5060608201518160030160006101000a81548160ff021916908360ff16021790555060808201518160030160016101000a81548160ff021916908360ff16021790555060a08201518160030160026101000a81548160ff02191690831515021790555060c08201518160030160036101000a81548173ffffffffffffffffffffffffffffffffffffffff021916908373ffffffffffffffffffffffffffffffffffffffff1602179055505050600194505050505095945050505050565b60026000815480929190610ab29061153f565b919050555060036040518060c001604052803373ffffffffffffffffffffffffffffffffffffffff1681526020018573ffffffffffffffffffffffffffffffffffffffff16815260200186815260200184815260200142815260200183815250908060018154018082558091505060019003906000526020600020906006020160009091909190915060008201518160000160006101000a81548173ffffffffffffffffffffffffffffffffffffffff021916908373ffffffffffffffffffffffffffffffffffffffff16021790555060208201518160010160006101000a81548173ffffffffffffffffffffffffffffffffffffffff021916908373ffffffffffffffffffffffffffffffffffffffff160217905550604082015181600201556060820151816003019080519060200190610bef929190610c60565b506080820151816004015560a0820151816005019080519060200190610c16929190610c60565b5050507f416cfa4330a4565f45c2fd2dd4826a83a37443aba2ce6f79477c7355afac35fa338486854286604051610c5296959493929190611237565b60405180910390a150505050565b828054610c6c9061150d565b90600052602060002090601f016020900481019282610c8e5760008555610cd5565b82601f10610ca757805160ff1916838001178555610cd5565b82800160010185558215610cd5579182015b82811115610cd4578251825591602001919060010190610cb9565b5b509050610ce29190610ce6565b5090565b5b80821115610cff576000816000905550600101610ce7565b5090565b6000610d16610d1184611351565b611320565b905082815260208101848484011115610d2e57600080fd5b610d398482856114cb565b509392505050565b600081359050610d5081611626565b92915050565b600082601f830112610d6757600080fd5b8135610d77848260208601610d03565b91505092915050565b600081359050610d8f8161163d565b92915050565b600081359050610da481611654565b92915050565b600081359050610db98161166b565b92915050565b600080600080600060a08688031215610dd757600080fd5b600086013567ffffffffffffffff811115610df157600080fd5b610dfd88828901610d56565b9550506020610e0e88828901610d80565b945050604086013567ffffffffffffffff811115610e2b57600080fd5b610e3788828901610d56565b9350506060610e4888828901610daa565b9250506080610e5988828901610daa565b9150509295509295909350565b60008060008060808587031215610e7c57600080fd5b6000610e8a87828801610d95565b9450506020610e9b87828801610d41565b935050604085013567ffffffffffffffff811115610eb857600080fd5b610ec487828801610d56565b925050606085013567ffffffffffffffff811115610ee157600080fd5b610eed87828801610d56565b91505092959194509250565b6000610f0583836110c8565b905092915050565b6000610f19838361116b565b905092915050565b610f2a81611495565b82525050565b610f3981611420565b82525050565b610f4881611420565b82525050565b6000610f59826113a1565b610f6381856113dc565b935083602082028501610f7585611381565b8060005b85811015610fb15784840389528151610f928582610ef9565b9450610f9d836113c2565b925060208a01995050600181019050610f79565b50829750879550505050505092915050565b6000610fce826113ac565b610fd881856113ed565b935083602082028501610fea85611391565b8060005b8581101561102657848403895281516110078582610f0d565b9450611012836113cf565b925060208a01995050600181019050610fee565b50829750879550505050505092915050565b61104181611444565b82525050565b61105081611444565b82525050565b6000611061826113b7565b61106b81856113fe565b935061107b8185602086016114da565b61108481611615565b840191505092915050565b600061109a826113b7565b6110a4818561140f565b93506110b48185602086016114da565b6110bd81611615565b840191505092915050565b600060e08301600083015184820360008601526110e58282611056565b91505060208301516110fa60208601826111fb565b50604083015184820360408601526111128282611056565b91505060608301516111276060860182611228565b50608083015161113a6080860182611228565b5060a083015161114d60a0860182611038565b5060c083015161116060c0860182610f30565b508091505092915050565b600060c0830160008301516111836000860182610f30565b5060208301516111966020860182610f30565b5060408301516111a9604086018261120a565b50606083015184820360608601526111c18282611056565b91505060808301516111d6608086018261120a565b5060a083015184820360a08601526111ee8282611056565b9150508091505092915050565b61120481611450565b82525050565b6112138161147e565b82525050565b6112228161147e565b82525050565b61123181611488565b82525050565b600060c08201905061124c6000830189610f3f565b6112596020830188610f21565b6112666040830187611219565b8181036060830152611278818661108f565b90506112876080830185611219565b81810360a0830152611299818461108f565b9050979650505050505050565b600060208201905081810360008301526112c08184610f4e565b905092915050565b600060208201905081810360008301526112e28184610fc3565b905092915050565b60006020820190506112ff6000830184611047565b92915050565b600060208201905061131a6000830184611219565b92915050565b6000604051905081810181811067ffffffffffffffff82111715611347576113466115e6565b5b8060405250919050565b600067ffffffffffffffff82111561136c5761136b6115e6565b5b601f19601f8301169050602081019050919050565b6000819050602082019050919050565b6000819050602082019050919050565b600081519050919050565b600081519050919050565b600081519050919050565b6000602082019050919050565b6000602082019050919050565b600082825260208201905092915050565b600082825260208201905092915050565b600082825260208201905092915050565b600082825260208201905092915050565b600061142b8261145e565b9050919050565b600061143d8261145e565b9050919050565b60008115159050919050565b600061ffff82169050919050565b600073ffffffffffffffffffffffffffffffffffffffff82169050919050565b6000819050919050565b600060ff82169050919050565b60006114a0826114a7565b9050919050565b60006114b2826114b9565b9050919050565b60006114c48261145e565b9050919050565b82818337600083830152505050565b60005b838110156114f85780820151818401526020810190506114dd565b83811115611507576000848401525b50505050565b6000600282049050600182168061152557607f821691505b60208210811415611539576115386115b7565b5b50919050565b600061154a8261147e565b91507fffffffffffffffffffffffffffffffffffffffffffffffffffffffffffffffff82141561157d5761157c611588565b5b600182019050919050565b7f4e487b7100000000000000000000000000000000000000000000000000000000600052601160045260246000fd5b7f4e487b7100000000000000000000000000000000000000000000000000000000600052602260045260246000fd5b7f4e487b7100000000000000000000000000000000000000000000000000000000600052604160045260246000fd5b6000601f19601f8301169050919050565b61162f81611432565b811461163a57600080fd5b50565b61164681611450565b811461165157600080fd5b50565b61165d8161147e565b811461166857600080fd5b50565b61167481611488565b811461167f57600080fd5b5056fea26469706673582212204de8c59fe5f859dcd66b707e195a112e9b99ec6b4ad2bec7808a9b793cd63e8264736f6c63430008000033",
  "linkReferences": {},
  "deployedLinkReferences": {}
}